:100000000C9464000C948C000C948C000C942507C8
:100010000C9425070C9425070C948C000C940D036C
:100020000C948C000C948C000C948C000C948C0020
:100030000C948C000C948C000C948C000C948C0010
:100040000C94680E0C948C000C9452040C942C04A8
:100050000C948C000C948C000C948C000C948C00F0
:100060000C9439080C948C00020000000023002638
:1000700000290000000000250028002B00040404D3
:100080000404040404020202020202030303030341
:10009000030102040810204080010204081020011E
:1000A000020408102000000000240027002A00009D
:1000B0000000080002010000030407000000000027
:1000C00000000000DA16BE1611241FBECFEFD8E0E4
:1000D000DEBFCDBF13E0A0E0B1E0ECEFF0E302C083
:1000E00005900D92A031B107D9F725E0A0E1B3E06A
:1000F00001C01D92AF32B207E1F710E0C3E6D0E0D5
:1001000004C02197FE010E946618C236D107C9F7C4
:100110000E94B20E0C9471180C940000CF92DF92E2
:10012000EF92FF920F931F93CF93DF936C017A01AD
:100130008B01C0E0D0E0CE15DF0581F0D8016D91D4
:100140008D01D601ED91FC910190F081E02DC60169
:100150000995892B11F02196EECF7E01C701DF9121
:10016000CF911F910F91FF90EF90DF90CF90089566
:10017000FC01538D448D252F30E0842F90E0821BAD
:10018000930B541710F0CF96089501970895FC0132
:10019000918D828D981761F0828DDF01A80FB11DBE
:1001A0005D968C91928D9F5F9F73928F90E00895E2
:1001B0008FEF9FEF0895FC01918D828D981731F09C
:1001C000828DE80FF11D858D90E008958FEF9FEFF0
:1001D0000895FC01918D228D892F90E0805C9F4FC6
:1001E000821B91098F739927089584E394E00E94FC
:1001F000E90021E0892B09F420E0822F0895FC0119
:10020000848DDF01A80FB11DA35ABF4F2C91848D9F
:1002100090E001968F739927848FA689B7892C93D4
:10022000A089B1898C91837080648C93938D848D27
:10023000981306C00288F389E02D80818F7D80832A
:100240000895EF92FF920F931F93CF93DF93EC01EA
:1002500081E0888F9B8D8C8D981305C0E889F98982
:10026000808185FD26C0F62E0B8D10E00F5F1F4F9D
:100270000F731127E02E8C8DE8120CC00FB607FC0F
:10028000FACFE889F989808185FFF5CFCE010E94F8
:10029000FF00F1CF8B8DFE01E80FF11DE35AFF4FF8
:1002A000F0829FB7F8940B8FEA89FB898081806286
:1002B0000AC09FB7F894EE89FF896083E889F989BD
:1002C00080818370806480839FBF81E090E0DF91B4
:1002D000CF911F910F91FF90EF900895CF93DF93EF
:1002E000EC01888D8823C9F0EA89FB89808185FD2E
:1002F00005C0A889B9898C9186FD0FC00FB607FC8F
:10030000F5CF808185FFF2CFA889B9898C9185FFCF
:10031000EDCFCE010E94FF00E7CFDF91CF9108958E
:1003200080E090E0892B29F00E94F50081110C9467
:1003300000000895BC016E5F7F4FDC01ED91FC91E0
:100340000190F081E02D40E0099591E0811190E06D
:10035000892F08952091120330911303281739072C
:1003600071F49091100380911103981741F0E0917E
:100370001003F0E0E051FC4F808190E008958FEF92
:100380009FEF089508951F93CF93DF93DC015C9650
:100390008D919C915D97009739F421E030E01396A0
:1003A0003C932E9312973BC05196ED91FC9152973E
:1003B00050962C915097322F30951FB75E964C91E6
:1003C0005E97742F727041FD6095F8944081772399
:1003D00011F0422B01C043234083EC012197F1F738
:1003E00048E0508160FF02C0522B01C0532350836C
:1003F000EC012197F1F76695415099F780817723B9
:1004000019F08323808302C0282B20831FBF5C96B2
:100410008D919C915D970197F1F781E090E0DF91DC
:10042000CF911F9108952091120330911303281743
:10043000390771F4809111032091100390E0805CE2
:100440009F4F821B910960E470E00E943718089565
:1004500080E090E008952091120330911303281753
:100460003907B9F49091100380911103981789F01E
:10047000E0911003F0E0E051FC4F808120911003E7
:1004800030E02F5F3F4F2F7333272093100390E00E
:1004900008958FEF9FEF089585ED8093BC008091C4
:1004A000BC0084FDFCCF10921A030895409187038D
:1004B000262F30E0240F311D21323105DCF420914C
:1004C0001A032430C9F4FC0180E090E0861758F448
:1004D000309187032191DC01A959BC4FA30FB11DB5
:1004E0002C930196F3CF80918703680F6093870365
:1004F00080E0089581E0089582E0089508950895C8
:10050000E0911E0380911D03E81730F4F0E0E95BF1
:10051000FC4F808190E008958FEF9FEF08959091B8
:100520001E0380911D03981750F4E92FF0E0E95B5A
:10053000FC4F208130E09F5F90931E0302C02FEF9D
:100540003FEFC901089580911D0390E020911E03A3
:10055000821B91090895CF92DF92EF92FF920F9341
:100560001F93CF93DF937C01CB018A012091CE03AF
:10057000222389F0EB016B01C40ED51ECC15DD05DD
:1005800069F06991D701ED91FC910190F081E02D26
:10059000C7010995F3CF642F0E945602C801DF916D
:1005A000CF911F910F91FF90EF90DF90CF90089522
:1005B000CF93DF931F92CDB7DEB769832091CE032F
:1005C0002223D1F020911B03203240F021E030E0C3
:1005D000FC013383228380E090E015C080911C03EE
:1005E000E82FF0E0E153FC4F998190838F5F809377
:1005F0001C0380931B0305C061E0CE0101960E949D
:10060000560281E090E00F90DF91CF910895089518
:1006100080E090E008950E946C181F920F920FB630
:100620000F9211242F933F934F935F936F937F9378
:100630008F939F93AF93BF93EF93FF938091220388
:1006400090912303A0912403B0912503892B8A2B39
:100650008B2B59F190911F03E0912003F09121031E
:100660008081892780838091220390912303A09128
:100670002403B0912503181619061A061B060CF060
:100680003DC08091220390912303A0912403B09157
:1006900025030197A109B1098093220390932303B5
:1006A000A0932403B093250329C080911401E8E6A8
:1006B000F0E0E4919FEF90931401E130B9F098F0ED
:1006C000E230C9F4909170009D7F9093700091E0AA
:1006D0009093B0009091B100987F94609093B10096
:1006E0001092B30008C010926E0005C090916F0088
:1006F0009D7F90936F0060E00E948B0CFF91EF91C3
:10070000BF91AF919F918F917F916F915F914F9129
:100710003F912F910F900FBE0F901F90189561156C
:10072000710579F0FB0101900020E9F73197AF01E5
:10073000461B570BDC01ED91FC910280F381E02D0B
:10074000099480E090E008958F929F92AF92BF92BB
:10075000EF92FF920F931F93CF93DF93CDB7DEB746
:10076000A1970FB6F894DEBF0FBECDBF7C01FA0192
:10077000CB0119A2223008F42AE08E010F5D1F4F31
:10078000822E912CA12CB12CBF01A50194010E94B5
:10079000FA17F901CA01015011096A3014F4605DB9
:1007A00001C0695CD8016C93232B242B252B61F7A6
:1007B000B801C7010E948F03A1960FB6F894DEBF5F
:1007C0000FBECDBFDF91CF911F910F91FF90EF90A2
:1007D000BF90AF909F908F900895CF92DF92EF924D
:1007E000FF920F931F93CF93DF93EC016A017B017C
:1007F000E881F9810190F081E02D6DE209958C018D
:1008000044275527BA014C195D096E097F092AE072
:10081000CE010E94A403800F911FDF91CF911F9101
:100820000F91FF90EF90DF90CF9008950F931F935B
:10083000CF93DF93EC010E948F038C016BEB71E08F
:10084000CE010E948F03800F911FDF91CF911F91E6
:100850000F9108950C948F031F920F920FB60F9271
:1008600011242F933F934F935F936F937F938F93B5
:100870009F93AF93BF93EF93FF9384E394E00E9421
:10088000FF00FF91EF91BF91AF919F918F917F9169
:100890006F915F914F913F912F910F900FBE0F90ED
:1008A0001F9018951F920F920FB60F9211242F933D
:1008B0008F939F93EF93FF93E0914404F09145044D
:1008C0008081E0914A04F0914B0482FD12C0908136
:1008D00080914D048F5F8F7320914E04821751F0E9
:1008E000E0914D04F0E0EC5CFB4F958F80934D045C
:1008F00001C08081FF91EF919F918F912F910F9077
:100900000FBE0F901F90189508958EBD00000DB476
:1009100007FEFDCF8EB508958CBD9DBD08951F9334
:10092000CF93DF93EC01162F80E590E00E948C04BA
:1009300060E08E850E948B0C812F80680E94850468
:1009400080E00E948504182F61E08E850E948B0C48
:10095000812FDF91CF911F9108950F931F93CF9314
:10096000DF93EC01062F142F80E590E00E948C04A9
:1009700060E08E850E948B0C802F0E948504812F61
:100980000E94850461E08E85DF91CF911F910F91C8
:100990000C948B0C8F929F92AF92CF92EF92FF921A
:1009A0000F931F93CF93DF9300D000D01F92CDB74A
:1009B000DEB74C0182E08D8340E064E2C4010E9416
:1009C000AD0440E066E2C4010E94AD0446E268E482
:1009D000C4010E94AD0486E28B838D81823040F198
:1009E0006CE1C4010E948F04482F4F776CE1C40171
:1009F0000E94AD0487E08C83A12CC12CCE0104960B
:100A00007C018E010B5F1F4F9E012F5F3F4F41E026
:100A1000BE016D5F7F4FC4010E94C80981110BC0E8
:100A20008D81823039F481E09C81911104C008C02D
:100A300084E001C081E091E0823019F090E001C0D3
:100A400091E0892F0F900F900F900F900F90DF91F2
:100A5000CF911F910F91FF90EF90CF90AF909F900B
:100A60008F900895CF92DF92EF92FF920F931F9392
:100A7000CF93DF93EC016B01F42E890140E062E03B
:100A80000E94AD0444E06AE0CE010E94AD0440E85B
:100A900064E1CE010E94AD04A6016F2DCE010E943B
:100AA000960943E062E0CE010E94AD048FB7F8944E
:100AB000C0903004D0903104E0903204F0903304C0
:100AC0008FBF89E5C80ED11CE11CF11C6AE0CE0184
:100AD0000E948F0482FF13C040E062E0CE010E94BA
:100AE000AD0464E4CE010E948F04F801808362E4C7
:100AF000CE010E948F04F801818380E011C02FB7DE
:100B0000F8948091300490913104A0913204B09116
:100B100033042FBF8C159D05AE05BF05B8F283E0E9
:100B2000DF91CF911F910F91FF90EF90DF90CF90C9
:100B300008952F923F924F925F926F927F928F9281
:100B40009F92AF92BF92CF92DF92EF92FF920F935C
:100B50001F93CF93DF93CDB7DEB72C970FB6F894E2
:100B6000DEBF0FBECDBF413508F00BC1342E3B01B7
:100B70004C016CE10E948F04482F4F776CE1C40157
:100B80000E94AD042224239432E0231691F083E0E6
:100B90002816E1F091E02912F6C083E98983332019
:100BA000D1F081E0F3019081953008F480E0B12C20
:100BB00017C0F5E9F983332081F081E0F3019081DA
:100BC000983008F480E043E0B42E0AC087E98983B6
:100BD00036E0B32E04C0B12C02C023E0B22E80E078
:100BE000D32CF8E0BF9ED0181124D7FCD12C882339
:100BF00021F098E89B8333E001C032E021E09D2D95
:100C0000977009F420E09D2D959595959595290F60
:100C100031F4882309F492C038E0D30E8FC08111DB
:100C200002C094E001C093E0291708F4922FEB2D45
:100C3000F0E03196E60DF71D232F4191A1E0B0E0E1
:100C4000AC0FBD1FA20FB11D4C932F5F422F431B52
:100C5000491798F3DECF8111DEC09FE19D150CF49A
:100C600094C080E2D82E90E79A839B818C8189275B
:100C70009D8189279E8189278F839E01285F3F4F11
:100C800047E0BE016F5F7F4FC4010E9432058111B2
:100C9000A3C01A86E3E0EB87CE0107962C0199E00A
:100CA0009C87CA844C2D4295407F4C0D6AE1C4015B
:100CB0000E94AD04A12CCE010A967C018E01055F35
:100CC0001F4F92014C85BE016F5F7F4FC4010E9490
:100CD000C809182F823009F0BECF6CE1C4010E9410
:100CE0008F0485FD98C08F7109F480E2282F30E0D1
:100CF0004D2DDD0C550B421753070CF044C0D82E78
:100D000085958595859591E0980F422F477081E0F4
:100D100009F480E0890FE1E0F0E0EC0FFD1FE80F3F
:100D2000F11D215031092770332781E090E001C087
:100D3000880F2A95EAF79081892B80838FE18D15A2
:100D40000CF491CF9D2D97709A878D2D8595859563
:100D500085958E5F292FE0E18E9F200D11242A8337
:100D600021E0911101C020E0280F2C8744244394F6
:100D7000512C4C0E5D1E480E511CF9E0F81BFB87F0
:100D800090CF16E048C015E046C08B81883809F442
:100D90003FC082E094E0EB2DF0E03196E60DF71DC8
:100DA000980FA1E0B0E0AC0FBD1FA80FB11D2C91B2
:100DB00021938F5F8913F5CF8B85833029F58A8541
:100DC000811122C09E012D5F3F4F41E0B201C4015D
:100DD0000E943205882311F0182F1DC09B81F2015B
:100DE0008181981313C09C81828198130FC08081E8
:100DF00082FF02C02394C8CEF3018387822D880F1F
:100E0000820D8F5F808307C011E005C017E003C02B
:100E100083E093E0C0CF812F2C960FB6F894DEBF0D
:100E20000FBECDBFDF91CF911F910F91FF90EF903B
:100E3000DF90CF90BF90AF909F908F907F906F90FA
:100E40005F904F903F902F9008951F920F920FB692
:100E50000F9211242F933F934F935F936F937F9340
:100E60008F939F93AF93BF93EF93FF93E091120300
:100E7000F0911303309709F451C0968DA685B7857C
:100E8000858591FF04C09C91892329F447C09C91DA
:100E9000892309F043C0A389B4899C9185898095F1
:100EA00089238C93868997890197F1F7608D718DDD
:100EB000A685B785558538E020E0CB010197F1F78D
:100EC000822F90E095958795282F4C91452309F026
:100ED0002068315091F7868D81FD20958091110316
:100EE00090E001968F73992730911003381749F0DD
:100EF000A0911103B0E0A051BC4F2C93809311033B
:100F000003C0868D8160868F828D938D0197F1F766
:100F1000A389B4899C918589892B8C93FF91EF914A
:100F2000BF91AF919F918F917F916F915F914F9101
:100F30003F912F910F900FBE0F901F901895CF9358
:100F4000FC01C48121E02093CE03C093EF031092F3
:100F50001C0310921B038385682B81ED94E00E9493
:100F6000D80290911B03913208F045C080911A037A
:100F70008111FCCF82E080931A0381E080931903F2
:100F80008FEF8093CD031092CC039093CB03AFEC03
:100F9000B3E0EBEAF3E080E0981721F02D91219384
:100FA0008F5FFACF1092AA038091AA03CC0FC82BAF
:100FB000C093AA0380911803813061F41092180342
:100FC0008091AA038093BB008091BC0083FDF8CF81
:100FD00085EC01C085EE8093BC0080911A038230BD
:100FE000E1F38091CD038F3F31F08091CD038032CA
:100FF00011F08091CD0310921C0310921B031092EC
:10100000CE03CF9108950F931F93CF938C01C62FDA
:101010000E949F076C2F6460C8010E949F076C2F7D
:101020006B7FC8010E949F0783EC90E00197F1F766
:10103000CF911F910F9108950F931F93CF93DF933B
:101040008C01C62FD42F607F642B0E94030880E19F
:10105000C89FB00111246D2BC801DF91CF911F9162
:101060000F910C94030841E00E941C0881E090E07D
:1010700008951F920F920FB60F9211242F933F9352
:101080004F935F936F937F938F939F93AF93BF9390
:10109000EF93FF938091B900887F803609F49CC05C
:1010A00068F5883209F45BC090F4803109F454C0CB
:1010B00038F4882309F4F6C0883009F44DC0F6C02E
:1010C000883109F44CC0803209F45DC0EFC080342F
:1010D00009F468C048F4803309F455C0883309F036
:1010E000E5C08093CD03D8C0803509F44FC0883562
:1010F00009F45DC0883409F0D9C0D6C0883909F434
:10110000C7C0A8F4883709F467C038F4883609F4F2
:1011100063C0803709F460C0C9C0883809F4B8C01A
:10112000803909F45FC0803809F0C0C05BC0803BE3
:1011300009F486C038F4803A09F466C0883A09F4A4
:101140007FC0B4C0803C09F4A7C0883C09F4A4C0A7
:10115000883B09F48AC0AAC08091AA0310C090916C
:10116000CC038091CB03981770F5E091CC0381E01C
:101170008E0F8093CC03F0E0E555FC4F8081809387
:10118000BB0085EC86C08093CD038EC0E091CC037C
:1011900081E08E0F8093CC038091BB00F0E0E55599
:1011A000FC4F80839091CC038091CB036EC0E09183
:1011B000CC0381E08E0F8093CC038091BB00F0E0E4
:1011C000E555FC4F80838091190381116DC081E04A
:1011D0008093180384EA61C083E080931A0310921D
:1011E000A903CFCF8091A903803208F051C0E091CC
:1011F000A90381E08E0F8093A9038091BB00F0E0EA
:10120000E757FC4F8083BDCF85EC8093BC001092E4
:101210001A038091A903803230F4E091A903F0E031
:10122000E757FC4F10826091A90370E0E09114032E
:10123000F091150389E893E009951092A90336C04F
:1012400084E080931A031092880310928703E09140
:101250001603F0911703099580918703811105C04A
:1012600081E08093870310926703E091880381E017
:101270008E0F80938803F0E0E959FC4F80818093C2
:10128000BB009091880380918703981708F479CF69
:1012900085E88093BC000AC085EC8093BC00109266
:1012A0001A0304C01092CD030E944C02FF91EF91EB
:1012B000BF91AF919F918F917F916F915F914F916E
:1012C0003F912F910F900FBE0F901F901895EF92A6
:1012D000FF920F931F93CF93DF93E82EF62EC7E074
:1012E000D0E0042F10E0B8010C2E02C07595679570
:1012F0000A94E2F761708E2D0E948B0C61E08F2DB5
:101300000E948B0C60E08F2D0E948B0C219758F768
:10131000DF91CF911F910F91FF90EF900895462F8D
:1013200050E060E070E02AE00C94A403DF92EF92BA
:10133000FF920F931F93CF93DF938C01F62ED42E41
:10134000E52E80E590E00E948C0460E0F80186853F
:101350000E948B0C82E10E948504CD2DDE2DCE01F2
:101360008F0D911D7C01EC16FD0621F089910E94E4
:101370008504F9CF61E0F80186850E948B0CDF912E
:10138000CF911F910F91FF90EF90DF900C94840408
:101390002F923F924F925F926F927F928F929F9285
:1013A000AF92CF92DF92EF92FF920F931F93CF9362
:1013B000DF9300D0CDB7DEB74C012B01D42E39011D
:1013C000E114F10419F0F701408101C040E0342E2E
:1013D000F0E1CF9E300C112440E062E0C4010E9495
:1013E000AD044FE768E0C4010E94AD0440E864E149
:1013F000C4010E94AD04A2016D2DC4010E94960992
:10140000432D6AE1C4010E94AD044CE062E0C401D6
:101410000E94AD046AE1C4010E948F04482F406815
:101420006AE1C4010E94AD048FB7F8944091300482
:101430005091310460913204709133048FBF1A01CE
:101440002B0184E2280E311C411C511C68E0C401B0
:101450000E948F04982F9073A9F480FF02C083E04C
:10146000B1C02FB7F8948091300490913104A091CD
:101470003204B09133042FBF82159305A405B5053E
:1014800028F3EDCF6CE0C4010E948F04D82E837145
:1014900009F095C06114710409F45AC001151105D1
:1014A00009F456C064E1C4010E948F04382EF8018B
:1014B0008081831508F47DC030823320F1F180E50E
:1014C00090E00E948C0460E0F40186850E948B0C01
:1014D00082E90E948504CC20A9F08FEF90E02C01D6
:1014E00001C0440CCA94EAF782E90E948504242DC5
:1014F0002095F301908192238421892B8083CC2431
:10150000C39401C0C12C3A944C2C512C460C571C4E
:10151000C31438F482E90E948504F2018083C394E5
:10152000F3CF80E00E948504F201808361E0F40142
:1015300086850E948B0C0E94840468E1C4010E948D
:101540008F048770E114F10421F0F701808301C05A
:1015500080E0D3FC30C06114710479F101151105EC
:1015600061F1AA2051F1F8014081413021F4843029
:1015700041F58FEF27C0423020F1811122C0425047
:101580009E012F5F3F4FB301C4010E9432058111BC
:1015900019C0F8018081680E711CF30132979081A7
:1015A000898198130EC0319690818A81981309C061
:1015B00004C084E007C082E005C080E003C081E091
:1015C00001C087E00F900F90DF91CF911F910F9195
:1015D000FF90EF90DF90CF90AF909F908F907F9093
:1015E0006F905F904F903F902F90089540E061E0A2
:1015F0008DEE94E00E941C088BE39FE10197F1F7C8
:101600000895CF93DF93CDB7DEB728970FB6F89440
:10161000DEBF0FBECDBF98E0E4E2F1E0DE0111963F
:1016200001900D929A95E1F79091F504961710F4B8
:101630006FEF690FFE013196E60FF11DE60FF11D08
:101640006081680F606840E08DEE94E028960FB6E8
:10165000F894DEBF0FBECDBFDF91CF910C941C0874
:101660001F93CF93DF93182FC1E0D5E061E089810C
:101670000E94BA0C61E089810E948B0C61E0888134
:101680000E948B0C60E089810E948B0C60E0888155
:101690000E948B0C412F68818981DF91CF911F912E
:1016A0000C94670960E0809102050E94BA0C61E029
:1016B000809101050E948B0C809102050E94620CB2
:1016C0000197D1F360E0809101050C948B0C1F937E
:1016D000CF93DF93182FC1E0D5E061E089810E94AC
:1016E000BA0C412F68818981DF91CF911F910C94B1
:1016F0006709CF93DF93C1E0D5E061E089810E9463
:10170000BA0C60E089810E948B0C61E088810E94A4
:101710008B0C61E089810E948B0C60E08981DF91F4
:10172000CF910C94BA0C833081F028F4813099F079
:101730008230A1F008958730A9F08830B9F0843064
:10174000D1F4809180008F7D03C0809180008F77DD
:1017500080938000089584B58F7702C084B58F7D13
:1017600084BD08958091B0008F7703C08091B00050
:101770008F7D8093B00008953FB7F89480912B053A
:1017800090912C05A0912D05B0912E0526B5A89B12
:1017900005C02F3F19F00196A11DB11D3FBFBA2F03
:1017A000A92F982F8827820F911DA11DB11DBC0163
:1017B000CD0142E0660F771F881F991F4A95D1F728
:1017C0000895CF93DF9390910A05992349F194EE00
:1017D0009093BC009091BC0097FFFCCF90ED90934C
:1017E000BB0094EC9093BC009091BC0097FFFCCFA1
:1017F0008093BB0084EC8093BC008091BC0087FF89
:10180000FCCF6093BB0084EC8093BC008091BC0053
:1018100087FFFCCF84E98093BC00DF91CF910895CE
:10182000C62FD82F80ED0E94300B0E94520B8D2FB7
:101830000E94670B0E94520B8C2F0E94670B0E9424
:10184000520BDF91CF910C94790BAB01770F660BA4
:10185000770B77FD0C94ED032AE00C94A403CF934F
:10186000DF93AC01990F660B770B77FF05C084E31C
:1018700094E00E94ED0305C02AE084E394E00E9416
:10188000A403EC016BEB71E084E394E00E948F030E
:101890008C0F9D1FDF91CF910895CF93DF93AB0104
:1018A000BC012AE084E394E00E94A403EC016BEB0A
:1018B00071E084E394E00E948F038C0F9D1FDF9101
:1018C000CF910895CF93DF93282F30E0F901E155B0
:1018D000FF4F8491F901EF56FF4FD491F901E3587E
:1018E000FF4FC491CC2391F081110E94930BEC2FF8
:1018F000F0E0EE0FFF1FE759FF4FA591B491EC9177
:10190000ED2381E090E021F480E002C080E090E0EF
:10191000DF91CF9108951F93CF93DF93282F30E06D
:10192000F901E155FF4F8491F901EF56FF4FD49132
:10193000F901E358FF4FC491CC23C1F0162F811158
:101940000E94930BEC2FF0E0EE0FFF1FED58FF4FBE
:10195000A591B4919FB7F894111104C08C91D095C2
:10196000D82302C0EC91DE2BDC939FBFDF91CF9197
:101970001F910895CF93DF9390E0FC01EF56FF4F46
:101980002491FC01E358FF4F8491882361F190E09A
:10199000880F991FFC01EB55FF4FC591D491FC01B5
:1019A000ED58FF4FA591B491611109C09FB7F8940C
:1019B0008881209582238883EC912E230BC062308E
:1019C00061F49FB7F8948881322F30958323888300
:1019D000EC912E2B2C939FBF06C08FB7F894E88113
:1019E0002E2B28838FBFDF91CF910895BF92CF9286
:1019F000DF92EF92FF920F931F93CF93DF93CDB7B8
:101A0000DEB728970FB6F894DEBF0FBECDBF80912A
:101A10000A05882309F447C084EE8093BC008091B6
:101A2000BC0087FFFCCF80ED8093BB0084EC8093EB
:101A3000BC008091BC0087FFFCCF1092BB0084ECFF
:101A40008093BC008091BC0087FFFCCF84EE809324
:101A5000BC008091BC0087FFFCCF81ED8093BB0070
:101A600084EC8093BC008091BC0087FFFCCFE3E056
:101A7000F5E08AE095E034EC3093BC002091BC00A6
:101A800027FFFCCF2091BB0021938E179F07A1F762
:101A900084E88093BC008091BC0087FFFCCF84E980
:101AA0008093BC006CC080ED0E94300B0E94520BF2
:101AB00080E00E94670B0E94520B81ED0E94300B68
:101AC0000E94520B93E0C92E95E0D92E00E010E061
:101AD00060E0809102050E94BA0C87E0E82EF12CAC
:101AE000B12C61E0809101050E948B0C8091020570
:101AF0000E94620C99270E2C01C0880F0A94EAF705
:101B0000B82A60E0809101050E948B0C71E0E71A11
:101B1000F10838F7F601B1926F0161E0809102059A
:101B20000630110549F00E94BA0C60E08091010571
:101B30000E948B0C60E008C00E94BA0C60E08091AB
:101B400001050E948B0C61E0809102050E948B0CC4
:101B500061E0809101050E948B0C60E0809101059D
:101B60000E948B0C60E0809102050E94BA0C0F5F0E
:101B70001F4F0730110509F0ABCF0E94790B809100
:101B80000305482F4695469546954E70942F990F1C
:101B9000990F490F8F70480F80910405382F3695A3
:101BA000369536953E70932F990F990F390F8F7098
:101BB000380F80910505282F2F7087FF08C085FBFF
:101BC000992790F9FCE09F9F200D112409C0807394
:101BD000869586958695982F990F990F890F280FCE
:101BE000E09106056091070570910805809109054F
:101BF000562F5695569556955E70952F990F990FBD
:101C0000590F6F70560F672F6695669566956E70C3
:101C1000962F990F990F690F7F70670F982F9295E4
:101C20009F708F707AE0979F800D112490E0805311
:101C3000984F9F838E83782F8F819E2F28960FB683
:101C4000F894DEBF0FBECDBFDF91CF911F910F91F2
:101C5000FF90EF90DF90CF90BF9008958F929F926A
:101C6000AF92BF92CF92DF92EF92FF926B017C0115
:101C70000E94BC0B4B015C01C114D104E104F104CE
:101C8000F1F00E94BC0BDC01CB0188199909AA096B
:101C9000BB09883E9340A105B10570F321E0C21A4B
:101CA000D108E108F10888EE880E83E0981EA11C97
:101CB000B11CC114D104E104F10419F7DDCFFF9088
:101CC000EF90DF90CF90BF90AF909F908F9008954E
:101CD0001F920F920FB60F9211242F933F938F9361
:101CE0009F93AF93BF938091300490913104A09162
:101CF0003204B091330430912A0523E0230F2D37AD
:101D000020F40196A11DB11D05C026E8230F0296FF
:101D1000A11DB11D20932A058093300490933104B6
:101D2000A0933204B093330480912B0590912C053D
:101D3000A0912D05B0912E050196A11DB11D809396
:101D40002B0590932C05A0932D05B0932E05BF91E4
:101D5000AF919F918F913F912F910F900FBE0F9058
:101D60001F901895CF93DF93CDB7DEB766970FB668
:101D7000F894DEBF0FBECDBF789484B5826084BD79
:101D800084B5816084BD85B5826085BD85B581607F
:101D900085BD80916E00816080936E0010928100FD
:101DA00080918100826080938100809181008160B8
:101DB0008093810080918000816080938000809179
:101DC000B10084608093B1008091B0008160809305
:101DD000B00080917A00846080937A0080917A00CC
:101DE000826080937A0080917A00816080937A008B
:101DF00080917A00806880937A001092C10060E040
:101E000081E10E94BA0C60E080E10E94BA0C60E0BF
:101E10008FE00E94BA0C60E088E00E94BA0C61E09A
:101E200087E00E94BA0C61E086E00E94BA0C61E093
:101E300083E00E94BA0C61E082E00E94BA0C61E08B
:101E400084E00E94BA0C61E085E00E94BA0C8091A7
:101E50000205823101F5809101058331E1F481E0D1
:101E600080930A0561E082E10E948B0C61E083E1CE
:101E70000E948B0C8091B9008E7F8093B900809175
:101E8000B9008D7F8093B9008CE08093B80085E025
:101E90008093BC0007C010920A0561E080910105A3
:101EA0000E94BA0C60E082E00E94E10B60E281E0F7
:101EB0000E94E10B60E080E00E94E10B62E286E0BC
:101EC0000E94E10B66E085E00E94E10B66E184E0A0
:101ED0000E94E10BE0914404F091450482E080838C
:101EE000E0914004F09141041082E0914204F091AD
:101EF000430480E1808310924C04E0914804F09107
:101F0000490486E08083E0914604F0914704808193
:101F100080618083E0914604F0914704808188606D
:101F20008083E0914604F09147048081806880833B
:101F3000E0914604F091470480818F7D8083109268
:101F40002605109225051092240510922305109263
:101F50002205109221058DE991E090932805809348
:101F6000270590911705963108F058C02DEB30E009
:101F700030932205209321052BE931E0309324058D
:101F8000209323052CE231E030932605209325058C
:101F900040916800983058F031E09E3008F430E00D
:101FA00021E0822F01C0880F3A95EAF701C084E052
:101FB000842B80936800983038F09E3040F0963142
:101FC00048F020E030E008C02DE630E005C02BE608
:101FD00030E002C02CE630E030931F0520931E0550
:101FE000983030F481E001C0880F9A95EAF70EC06E
:101FF000292F30E09E3018F42850310902C02E50AD
:10200000310981E001C0880F2A95EAF78093200505
:1020100080912705909128050197F1F7809125057A
:1020200090912605892B49F1E0911203F091130359
:1020300025E0EB30F20709F1309739F0A389B48934
:102040009C918589809589238C93809129058E7F29
:102050008093290510921103109210038BE095E0F4
:102060009093130380931203E0911E05F0911F05D6
:10207000908180912005892B808368E771E08BE057
:1020800095E00E94160410921E0310921D031092F8
:102090001C0310921B0310921A0381E08093190312
:1020A0001092180361E082E10E948B0C61E083E1F1
:1020B0000E948B0C8091B9008E7F8093B900809133
:1020C000B9008D7F8093B90088E48093B80085E4DF
:1020D0008093BC008EE792E09093170380931603E1
:1020E0008FE792E090931503809314031092F2040B
:1020F0008091F704823018F098E09093F204809376
:10210000F50462E370E080E090E00E942E0E6091A2
:10211000F8048DEE94E00E949F0768EE73E080E083
:1021200090E00E942E0E60E38DEE94E00E94030882
:102130000BE416E4C8010197F1F760E38DEE94E03B
:102140000E940308C8010197F1F760E38DEE94E067
:102150000E94030883E592E00197F1F760E28DEEBB
:1021600094E00E9403086091F204606240E08DEE0A
:1021700094E00E941C0884E08093F30440E06CE04B
:102180008DEE94E00E941C080E94F60A82E0809383
:10219000F40440E066E08DEE94E00E941C0840E00C
:1021A00062E08DEE94E00E941C088BE39FE10197B2
:1021B000F1F788E08093F80460E08DEE94E00E94EF
:1021C0009F0761E080E00E94010B6BE871E08DEEFB
:1021D00094E00E942A0462E080E00E94010B6EE914
:1021E00071E08DEE94E00E942A0468E873E180E0DB
:1021F00090E00E942E0E0E94F60A1FB7F89480917C
:102200002603811127C0E7E8F0E08491EBE9F0E0D4
:102210009491E82FF0E0EE0FFF1FEB55FF4FA591D3
:10222000B491EC91E92321F461E08AE00E948B0CE7
:1022300061E08AE00E94BA0C8CB580618CBD8CB5DF
:1022400080648CBD61E08DE00E94BA0C61E08BE09F
:102250000E94BA0C809126038F5F809326031FBFD4
:1022600061E08091EB040E94BA0C61E08091EB0484
:102270000E948B0C8091EC048F3F09F468C360E0EE
:102280000E94BA0C8091EC040E94620C892B09F028
:102290005EC361E08091EC040E94BA0C60E0809122
:1022A000EC040E948B0C83E090E00197F1F761E071
:1022B0008091EC040E948B0C62E370E080E090E07F
:1022C0000E942E0E0FC0115069F062E370E080E0B2
:1022D00090E00E942E0E62E08DED94E00E948F044B
:1022E00084FDF1CF40E064E28DED94E00E94AD0406
:1022F00040E066E28DED94E00E94AD0446E268E4C1
:102300008DED94E00E94AD0440E864E58DED94E02D
:102310000E94AD0449EA66E58DED94E00E94AD04AB
:1023200043E068E58DED94E00E94AD0448EE6AE577
:102330008DED94E00E94AD0440E46AE28DED94E0FE
:102340000E94AD044DE362E28DED94E00E94AD0485
:1023500068E28DED94E00E948F04982F9370933083
:1023600039F0482F436068E28DED94E00E94AD049F
:102370004AE0D42E5AE0252E312C60E1862E6EE004
:10238000962E44244A9473E0572E612C712C8DEDC7
:1023900094E00E94CA04882309F454C08DED94E0AF
:1023A0000E949A01882309F44DC061EB71E084E337
:1023B00094E00E942A0430EEE32E34E0F32E07E28C
:1023C00013E08091DF0490E09801275233402817F2
:1023D00039075CF4F70161917F01F80161938F0186
:1023E00084E394E00E948F09ECCF8091280390E071
:1023F000909346038093450380E589831A829E016A
:102400002D5F3F4F42E0BE016F5F7F4F8DED94E047
:102410000E943205811110C0A12CC12CE12CF12C9D
:1024200000E010E020E030E044E0BE016F5F7F4F4D
:102430008DED94E00E94C8096BEB71E084E394E0B9
:102440000E948F036EEB71E084E394E00E942A0403
:1024500080914503909146030E942F0C81E10E94D8
:10246000620C892B09F47BC280E10E94620C892BEB
:1024700009F475C281E10E94620C019709F0CEC196
:1024800080E10E94620C019709F0C8C167EC72E01C
:1024900084E394E00E94160481E08093150161E0DA
:1024A00082E00E948B0C60E084E00E948B0C8EE046
:1024B000E6E1F1E0DE01119601900D928A95E1F7D7
:1024C0000E94F60CE92F2F87388B498B5A8B6B8B28
:1024D0007C8B8D8B9E8BCE0101968E0F911D8E0F66
:1024E000911DFC0132976081718184E394E00E9428
:1024F0002A046CE971E084E394E00E942A040E94BB
:10250000F60C29833A834B835C836D837E838F83B0
:1025100098875A3008F034C280E380930001852FF9
:102520006D2D0E942B18905D909301018EE2809397
:1025300002012D812A3008F029C280E38093030133
:10254000822F6D2D0E942B18905D909304018EE2D6
:10255000809305012E813F81C90168EE73E00E94DE
:102560003718605D6093060164E670E00E943718DA
:10257000605D60930701C90164E670E00E9437184E
:10258000B1010E943718605D60930801C901B10173
:102590000E943718805D8093090110920A0160E063
:1025A00071E084E394E00E942A0466EC71E084E325
:1025B00094E00E942A040E94F60C29833A834B83FC
:1025C0005C836D837E838F8398872A3008F0E4C113
:1025D00080E380930B01822F6D2D0E942B18905D5C
:1025E00090930C018AE380930D012A812A3008F030
:1025F000D9C180E380930E01822F6D2D0E942B188C
:10260000905D90930F018AE3809310012B812A3013
:1026100008F0CEC180E380931101822F6D2D0E94BE
:102620002B18905D90931201109213016BE071E0F2
:1026300084E394E00E9416046BEC71E084E394E080
:102640000E942A0488E00E94620C0E942F0C88E0FD
:102650000E94620C892B09F4B1C163ED71E084E33F
:1026600094E00E942A0480913F03909140030E94CD
:102670002F0C0E94F60C2093F9043093FA04409337
:10268000FB045093FC046093FD047093FE0480935C
:10269000FF0490930005289DC001299D900D1124F1
:1026A0002CE3329F800D911D1124840F911D092E62
:1026B000000CAA0BBB0B80933A0390933B03A093AF
:1026C0003C03B0933D0360EE71E084E394E00E942C
:1026D0002A046091410370914203809143039091D9
:1026E00044030E944D0C6EEE71E084E394E00E947E
:1026F0002A0460913A0370913B0380913C039091CE
:102700003D030E944D0C6BEF71E084E394E00E9466
:102710002A0480913A0390913B03A0913C03B0912D
:102720003D030091410310914203209143033091F6
:102730004403BC01CD01601B710B820B930B0E9403
:102740004D0C80913A0390913B03A0913C03B091D2
:102750003D030697A109B1094091410350914203FD
:102760006091430370914403841B950BA60BB70B38
:102770000497A105B10508F464C181E480937C004D
:1027800080917A00806480937A0080917A0086FD3F
:10279000FCCFA091780080917900B0E0B82B2FEFAA
:1027A00030E00E944B18A30192010E94D017309391
:1027B000380320933703A4E6B0E00E94EF172FEF11
:1027C00030E040E050E00E94D01730933603209371
:1027D000350363E772E084E394E00E942A04809169
:1027E0003503909136030E942F0C80913A0390910B
:1027F0003B03A0913C03B0913D03409141035091B4
:1028000042036091430370914403841B950BA60B14
:10281000B70B0B97A105B10508F0F3C10E94F60AAA
:1028200088E08093F80460E08DEE94E00E949F07BA
:1028300060E081E00E94010B6091FC048DEE94E069
:102840000E948F0968E572E08DEE94E00E942A04F0
:102850006091FD048DEE94E00E948F0968E572E0BE
:102860008DEE94E00E942A044091FE045091FF04F2
:1028700060E070E02AE08DEE94E00E94A40366EC34
:1028800071E08DEE94E00E942A046091F9048DEECF
:1028900094E00E948F096AE572E08DEE94E00E9458
:1028A0002A046091FA048DEE94E00E948F0961E0A1
:1028B00080E00E94010B6CE572E08DEE94E00E94D6
:1028C0002A0480911501813019F468E672E002C093
:1028D00064E372E08DEE94E00E942A0462E080E0FE
:1028E0000E94010B62E772E08DEE94E00E942A04E0
:1028F00060913503709136038DEE94E00E94250CB3
:102900006EE772E08DEE94E00E942A0463E080E0BE
:102910000E94010B62E872E08DEE94E00E942A04AE
:1029200060913F03709140038DEE94E00E94250C6E
:1029300068EE73E080E090E00E942E0E6FE872E097
:1029400084E394E00E9416040E94900120CD4FE0A1
:1029500062E08DED94E00E94AD0413E0B6CC60E03F
:1029600082E00E948B0C61E084E00E948B0C10924C
:1029700015016BEB72E084E394E00E9416047ACDBB
:10298000852F6D2D0E942B18805DC7CD822F6D2D58
:102990000E942B18805DD2CD822F6D2D0E942B18A6
:1029A000805D17CE822F6D2D0E942B18805D22CE68
:1029B000822F6D2D0E942B18805D2DCE0E94F60C6B
:1029C0002093F9043093FA044093FB045093FC04E1
:1029D0006093FD047093FE048093FF0490930005C0
:1029E000289DC001299D900D1124FCE33F9F800D7F
:1029F000911D1124840F911D092E000CAA0BBB0BF5
:102A00008093410390934203A0934303B093440304
:102A100068EE73E080E090E00E942E0E88E00E9455
:102A2000620C019709F019CE80913F039091400309
:102A300001969093400380933F0381E080933E038F
:102A40000CCE80911401853021F08F3F09F0BBC07E
:102A500004C0E8E6F0E0149174C085E080931401AE
:102A6000E8E6F0E014911F3F09F4ADC0113009F41D
:102A700045C050F1123009F064C01092B0001092BD
:102A8000B1008091B00082608093B0008091B1006D
:102A900081608093B100E2E8F0E08491E82FF0E0FB
:102AA000EE0FFF1FED58FF4F8591949190932103F6
:102AB00080932003E6E9F0E0E491E0931F0361E0F6
:102AC00085E00E94BA0C52C114BC15BC84B582606A
:102AD00084BD85B5816085BDE2E8F0E08491E82F92
:102AE000F0E0EE0FFF1FED58FF4F85919491E6E95E
:102AF000F0E0E491E0932C0310E025C010928000F8
:102B00001092810080918100886080938100809183
:102B10008100816080938100E2E8F0E08491E82FF9
:102B2000F0E0EE0FFF1FED58FF4F85919491E6E91D
:102B3000F0E0E491E0932B0361E085E00E94BA0CA1
:102B40000EC017FD40C061E085E00E94BA0C112361
:102B500009F4F4C0123009F409C11130F1F4809184
:102B60008100887F8160809381008FE79EE390934E
:102B700089008093880088EE93E0A0E0B0E0809325
:102B80002D0390932E03A0932F03B09330038091D5
:102B90006F00826080936F0016C01230A1F48FE73F
:102BA0008093B30088EE93E0A0E0B0E0809322032E
:102BB00090932303A0932403B09325038091700086
:102BC00082608093700068EC70E080E090E00E948A
:102BD0002E0E61E085E00E94BA0C60E085E00E9464
:102BE0008B0C64E670E080E090E00E942E0E69E0BD
:102BF00072E084E394E00E94160481E0809339033C
:102C0000BCCD80913903882309F408CE80913E031E
:102C1000882309F403CE009137031091380361E053
:102C200086E00E94BA0C0115110511F460E004C0A1
:102C30000F3F110529F461E086E00E948B0C43C030
:102C4000E5EBF0E084918330F9F048F48130B9F09D
:102C50008230A1F584B5806284BD08BD34C0873060
:102C6000E9F0883019F1843049F580918000806264
:102C70008093800010938B0000938A0024C084B559
:102C8000806884BD07BD1FC08091800080688093EC
:102C90008000109389000093880015C08091B000D7
:102CA00080688093B0000093B3000DC08091B000A5
:102CB00080628093B0000093B40005C00038110515
:102CC0000CF0B9CFB3CF61E087E00E94BA0C60E0AE
:102CD00087E00E948B0C6FE172E084E394E00E9435
:102CE000160468EE73E080E090E00E942E0E60E033
:102CF00086E00E948B0C60E087E00E948B0C6DE206
:102D000072E084E394E00E94160464E670E080E0E0
:102D100090E00E942E0E10924103109242031092F6
:102D20004303109244031092390310923E036DE363
:102D300072E084E394E00E94160470CD85B5887F2C
:102D4000836085BD89EF87BD88EE93E0A0E0B0E0A9
:102D50008093310390933203A0933303B0933403F1
:102D600080916E00826080936E002DCF8091B100C3
:102D7000887F84608093B10089EF12CF8AE691E06A
:102D800090930C0580930B0580911203909113038F
:102D90008B50954071F4E0911E05F0911F059081D4
:102DA00080912005809589238083109213031092CF
:102DB00012030895109237041092360488EE93E0BF
:102DC000A0E0B0E08093380490933904A0933A04D3
:102DD000B0933B0420E331E0309335042093340476
:102DE00025EC30E0309341042093400424EC30E0A3
:102DF000309343042093420420EC30E030934504A8
:102E00002093440421EC30E030934704209346049F
:102E100022EC30E0309349042093480426EC30E063
:102E200030934B0420934A0410924D0410924E04A8
:102E300010924F04109250041092D4041092D304B4
:102E40008093D5049093D604A093D704B093D8046C
:102E500022E431E03093D2042093D10410920E0585
:102E600010920D0580930F0590931005A093110506
:102E7000B09312058AE691E090930C0580930B05C0
:102E8000109222051092210510922405109223051C
:102E900010922605109225051092280510922705FC
:102EA000609129056E7F6D7F60932905669561703D
:102EB00081E068270E948B0C61E081E00E94BA0CDF
:102EC000E2E9F0E0E491E0931B05EEE7F0E0E49145
:102ED000F0E0EE0FFF1FED58FF4F85919491909316
:102EE0001D0580931C0560E080E00E94BA0C809173
:102EF000290581FD04C061E080E00E948B0C1092E6
:102F00001705E1E9F0E0E491E0931805EDE7F0E062
:102F1000E491F0E0EE0FFF1FE759FF4F8591949188
:102F200090931A058093190582E18093020583E14D
:102F3000809301058EED97E09093FF048093FE044B
:102F400081E08093FD048093FC041092F9041092B8
:102F5000FA041092FB0483E0809300051092F004C1
:102F60001092EF048EE591E09093EE048093ED04CF
:102F700087E28093F10484E18093F60484E08093F7
:102F8000F7041092F80484E591E09093DE048093B6
:102F9000DD048AE08093EB0489E08093EC040895DB
:102FA000052E97FB1EF400940E94E71757FD07D0EB
:102FB0000E94FA1707FC03D04EF40C94E7175095C3
:102FC0004095309521953F4F4F4F5F4F0895909515
:102FD0008095709561957F4F8F4F9F4F08950E9408
:102FE0001C18A59F900DB49F900DA49F800D911D5E
:102FF00011240895A1E21A2EAA1BBB1BFD010DC0CE
:10300000AA1FBB1FEE1FFF1FA217B307E407F50798
:1030100020F0A21BB30BE40BF50B661F771F881F74
:10302000991F1A9469F760957095809590959B010A
:10303000AC01BD01CF010895A29FB001B39FC001B3
:10304000A39F700D811D1124911DB29F700D811DD4
:103050001124911D0895991B79E004C0991F9617BA
:1030600008F0961B881F7A95C9F78095089597FBFD
:10307000072E16F4009407D077FD09D00E9452184D
:1030800007FC05D03EF4909581959F4F089570956B
:1030900061957F4F08950E941C18B7FF0895821B09
:1030A000930B0895AA1BBB1B51E107C0AA1FBB1FAE
:1030B000A617B70710F0A61BB70B881F991F5A95C4
:1030C000A9F780959095BC01CD010895EE0FFF1FE3
:1030D0000590F491E02D099481E090E0F8940C942F
:1030E000711810E0C3E6D0E004C0FE010E9466182B
:0C30F0002196C436D107C9F7F894FFCF31
:1030FC0078787878787878787878007878787878BC
:10310C0078787800FF01D702DE02E602F002F902BD
:10311C0000030903000040001400540000000000EC
:10312C0021018E00B8006E01E900C700DB00000031
:10313C000000D802AB020803C201A3028F02800276
:10314C00000000009905CA049A0100000000330831
:10315C008E000803070300000000C3018E00080363
:10316C00C20113022B02AA0148656C6C6F206672B7
:10317C006F6D2041726475696E6F002020202020D5
:10318C00204175746F6D6174652020202000202013
:10319C002020202050726F6772616D6D61626C65CA
:1031AC0000436172642049443A20000D0A005246E3
:1031BC004944203A2000202D2D2000204952202067
:1031CC003A2000636F6D707465757220203A200090
:1031DC0066697273745F74696D65203A20006C6166
:1031EC0073745F74696D65203A2000446966666586
:1031FC0072656E6365203A20002A2A2A2A2A2A2A16
:10320C002A2A62757A7A65722A2A2A2A2A20006D5D
:10321C006F7465757220746F75726E65006D6F7466
:10322C0065757220656E206172726574002A2A2A97
:10323C002A2A2A2A2A2A6D617263685F6176616E76
:10324C00742A2A2A2A2A20002E003A002053797345
:10325C0074656D65203A2000656E206D617263683F
:10326C0065002056697465737365203A200020252B
:10327C002000205175616E74697465203A20002A13
:10328C002A2A2A2A2A2A2A2A2A2A2A2A2A2A2A2A92
:10329C002A2A2A2A2A2A2A2A2A2A2A2A2A2A2A2A82
:1032AC002A2A2A2A2A2A2A2A2A20006574617420AA
:1032BC00617272657420006574617420656E206D96
:1032CC00617263686520004D6F6E6461790054759E
:1032DC006573646179005765646E65736461790028
:1032EC00546875727364617900467269646179001F
:1032FC0053617475726461790053756E6461790001
:00000001FF
